{
  "_format": "hh-sol-artifact-1",
  "contractName": "MomaFarm",
  "sourceName": "contracts/moma-farm/MomaFarm.sol",
  "abi": [
    {
      "inputs": [],
      "stateMutability": "nonpayable",
      "type": "constructor"
    },
    {
      "anonymous": false,
      "inputs": [
        {
          "indexed": true,
          "internalType": "address",
          "name": "user",
          "type": "address"
        },
        {
          "indexed": false,
          "internalType": "uint256",
          "name": "amount",
          "type": "uint256"
        }
      ],
      "name": "Deposit",
      "type": "event"
    },
    {
      "anonymous": false,
      "inputs": [
        {
          "indexed": true,
          "internalType": "address",
          "name": "user",
          "type": "address"
        },
        {
          "indexed": false,
          "internalType": "uint256",
          "name": "amount",
          "type": "uint256"
        }
      ],
      "name": "EmergencyWithdraw",
      "type": "event"
    },
    {
      "anonymous": false,
      "inputs": [
        {
          "indexed": true,
          "internalType": "address",
          "name": "previousOwner",
          "type": "address"
        },
        {
          "indexed": true,
          "internalType": "address",
          "name": "newOwner",
          "type": "address"
        }
      ],
      "name": "OwnershipTransferred",
      "type": "event"
    },
    {
      "anonymous": false,
      "inputs": [
        {
          "indexed": true,
          "internalType": "address",
          "name": "user",
          "type": "address"
        },
        {
          "indexed": false,
          "internalType": "uint256",
          "name": "amount",
          "type": "uint256"
        }
      ],
      "name": "Withdraw",
      "type": "event"
    },
    {
      "inputs": [],
      "name": "accMomaPerShare",
      "outputs": [
        {
          "internalType": "uint256",
          "name": "",
          "type": "uint256"
        }
      ],
      "stateMutability": "view",
      "type": "function"
    },
    {
      "inputs": [
        {
          "internalType": "uint256",
          "name": "_amount",
          "type": "uint256"
        }
      ],
      "name": "deposit",
      "outputs": [],
      "stateMutability": "nonpayable",
      "type": "function"
    },
    {
      "inputs": [],
      "name": "emergencyWithdraw",
      "outputs": [],
      "stateMutability": "nonpayable",
      "type": "function"
    },
    {
      "inputs": [],
      "name": "firstCycleRate",
      "outputs": [
        {
          "internalType": "uint256",
          "name": "",
          "type": "uint256"
        }
      ],
      "stateMutability": "view",
      "type": "function"
    },
    {
      "inputs": [],
      "name": "forceEnd",
      "outputs": [],
      "stateMutability": "nonpayable",
      "type": "function"
    },
    {
      "inputs": [
        {
          "internalType": "uint256",
          "name": "_fromBlock",
          "type": "uint256"
        },
        {
          "internalType": "uint256",
          "name": "_toBlock",
          "type": "uint256"
        }
      ],
      "name": "getMultiplier",
      "outputs": [
        {
          "internalType": "uint256",
          "name": "",
          "type": "uint256"
        }
      ],
      "stateMutability": "view",
      "type": "function"
    },
    {
      "inputs": [],
      "name": "initRate",
      "outputs": [
        {
          "internalType": "uint256",
          "name": "",
          "type": "uint256"
        }
      ],
      "stateMutability": "view",
      "type": "function"
    },
    {
      "inputs": [
        {
          "internalType": "address",
          "name": "_momaVault",
          "type": "address"
        },
        {
          "internalType": "uint256",
          "name": "_momaPerBlock",
          "type": "uint256"
        },
        {
          "internalType": "uint256",
          "name": "_startBlock",
          "type": "uint256"
        },
        {
          "internalType": "uint256[]",
          "name": "_rateParameters",
          "type": "uint256[]"
        }
      ],
      "name": "initialize",
      "outputs": [],
      "stateMutability": "nonpayable",
      "type": "function"
    },
    {
      "inputs": [],
      "name": "isActive",
      "outputs": [
        {
          "internalType": "bool",
          "name": "",
          "type": "bool"
        }
      ],
      "stateMutability": "view",
      "type": "function"
    },
    {
      "inputs": [],
      "name": "lastRewardBlock",
      "outputs": [
        {
          "internalType": "uint256",
          "name": "",
          "type": "uint256"
        }
      ],
      "stateMutability": "view",
      "type": "function"
    },
    {
      "inputs": [],
      "name": "moma",
      "outputs": [
        {
          "internalType": "address",
          "name": "",
          "type": "address"
        }
      ],
      "stateMutability": "view",
      "type": "function"
    },
    {
      "inputs": [],
      "name": "momaPerBlock",
      "outputs": [
        {
          "internalType": "uint256",
          "name": "",
          "type": "uint256"
        }
      ],
      "stateMutability": "view",
      "type": "function"
    },
    {
      "inputs": [],
      "name": "momaVault",
      "outputs": [
        {
          "internalType": "address",
          "name": "",
          "type": "address"
        }
      ],
      "stateMutability": "view",
      "type": "function"
    },
    {
      "inputs": [],
      "name": "owner",
      "outputs": [
        {
          "internalType": "address",
          "name": "",
          "type": "address"
        }
      ],
      "stateMutability": "view",
      "type": "function"
    },
    {
      "inputs": [
        {
          "internalType": "address",
          "name": "_user",
          "type": "address"
        }
      ],
      "name": "pendingMoma",
      "outputs": [
        {
          "internalType": "uint256",
          "name": "",
          "type": "uint256"
        }
      ],
      "stateMutability": "view",
      "type": "function"
    },
    {
      "inputs": [],
      "name": "reducingCycle",
      "outputs": [
        {
          "internalType": "uint256",
          "name": "",
          "type": "uint256"
        }
      ],
      "stateMutability": "view",
      "type": "function"
    },
    {
      "inputs": [],
      "name": "reducingRate",
      "outputs": [
        {
          "internalType": "uint256",
          "name": "",
          "type": "uint256"
        }
      ],
      "stateMutability": "view",
      "type": "function"
    },
    {
      "inputs": [],
      "name": "renounceOwnership",
      "outputs": [],
      "stateMutability": "nonpayable",
      "type": "function"
    },
    {
      "inputs": [],
      "name": "startBlock",
      "outputs": [
        {
          "internalType": "uint256",
          "name": "",
          "type": "uint256"
        }
      ],
      "stateMutability": "view",
      "type": "function"
    },
    {
      "inputs": [
        {
          "internalType": "address",
          "name": "newOwner",
          "type": "address"
        }
      ],
      "name": "transferOwnership",
      "outputs": [],
      "stateMutability": "nonpayable",
      "type": "function"
    },
    {
      "inputs": [],
      "name": "updatePool",
      "outputs": [],
      "stateMutability": "nonpayable",
      "type": "function"
    },
    {
      "inputs": [
        {
          "internalType": "uint256",
          "name": "_reducingRate",
          "type": "uint256"
        }
      ],
      "name": "updateReducingRate",
      "outputs": [],
      "stateMutability": "nonpayable",
      "type": "function"
    },
    {
      "inputs": [
        {
          "internalType": "address",
          "name": "",
          "type": "address"
        }
      ],
      "name": "userInfo",
      "outputs": [
        {
          "internalType": "uint256",
          "name": "amount",
          "type": "uint256"
        },
        {
          "internalType": "uint256",
          "name": "rewardDebt",
          "type": "uint256"
        }
      ],
      "stateMutability": "view",
      "type": "function"
    },
    {
      "inputs": [
        {
          "internalType": "uint256",
          "name": "_amount",
          "type": "uint256"
        }
      ],
      "name": "withdraw",
      "outputs": [],
      "stateMutability": "nonpayable",
      "type": "function"
    }
  ],
  "bytecode": "0x608060405234801561001057600080fd5b50600080546001600160a01b031916339081178255604051909182917f8be0079c531659141344cd1fd0a4f28419497f9722a3daafe3b4186f6b6457e0908290a350611c7f806100616000396000f3fe608060405234801561001057600080fd5b50600436106101985760003560e01c80638da5cb5b116100e3578063c9323e311161008c578063f1b90d4c11610066578063f1b90d4c14610318578063f2fde38b1461032b578063fca7a0e01461033e57610198565b8063c9323e31146102ff578063db2e21bc14610308578063e3161ddd1461031057610198565b8063a9f8d181116100bd578063a9f8d181146102da578063ab0c7390146102e3578063b6b55f25146102ec57610198565b80638da5cb5b146102ad5780638dbb1e3a146102be578063a14700cf146102d157610198565b80634a94277111610145578063698644181161011f57806369864418146102895780636eb9830414610292578063715018a6146102a557610198565b80634a9427711461025b5780634ee0ab0d1461026e5780635d9a6e6b1461027657610198565b806322f3e2d41161017657806322f3e2d4146102205780632e1a7d4d1461023d57806348cd4cb11461025257610198565b8063081399c01461019d57806315e9afea146101b95780631959a002146101e4575b600080fd5b6101a6600a5481565b6040519081526020015b60405180910390f35b6001546101cc906001600160a01b031681565b6040516001600160a01b0390911681526020016101b0565b61020b6101f2366004611840565b600c602052600090815260409020805460019091015482565b604080519283526020830191909152016101b0565b60075461022d9060ff1681565b60405190151581526020016101b0565b61025061024b36600461197e565b610347565b005b6101a660045481565b6002546101cc906001600160a01b031681565b610250610493565b610250610284366004611878565b61054b565b6101a6600b5481565b6102506102a036600461197e565b610b51565b610250610c57565b6000546001600160a01b03166101cc565b6101a66102cc3660046119ae565b610d08565b6101a660035481565b6101a660055481565b6101a660065481565b6102506102fa36600461197e565b610d2d565b6101a660095481565b610250610e67565b610250610ed4565b6101a6610326366004611840565b61101f565b610250610339366004611840565b611171565b6101a660085481565b336000908152600c6020526040902080548211156103ac5760405162461bcd60e51b815260206004820152601260248201527f77697468647261773a206e6f7420676f6f64000000000000000000000000000060448201526064015b60405180910390fd5b60075460ff161515600114156103c4576103c4610ed4565b6000816001015464e8d4a5100060065484600001546103e39190611b5e565b6103ed9190611a36565b6103f79190611b7d565b905080156104095761040933826112af565b821561043557815461041c908490611b7d565b8255600154610435906001600160a01b03163385611332565b600654825464e8d4a510009161044a91611b5e565b6104549190611a36565b600183015560405183815233907f884edad9ce6fa2440d8a54cc123490eb96d2768479d49ff9c7366125a94243649060200160405180910390a2505050565b6000546001600160a01b031633146104ed5760405162461bcd60e51b815260206004820181905260248201527f4f776e61626c653a2063616c6c6572206973206e6f7420746865206f776e657260448201526064016103a3565b60075460ff1615156001146105375760405162461bcd60e51b815260206004820152601060248201526f4661726d3a204e6f742061637469766560801b60448201526064016103a3565b61053f610ed4565b6007805460ff19169055565b600054600160a81b900460ff168061057e575060005474010000000000000000000000000000000000000000900460ff16155b6105f05760405162461bcd60e51b815260206004820152602e60248201527f496e697469616c697a61626c653a20636f6e747261637420697320616c72656160448201527f647920696e697469616c697a656400000000000000000000000000000000000060648201526084016103a3565b600054600160a81b900460ff1615801561064557600080547fffffffffffffffffffff0000ffffffffffffffffffffffffffffffffffffffff1675010100000000000000000000000000000000000000001790555b6001600160a01b03851661069b5760405162461bcd60e51b815260206004820152601860248201527f4661726d3a20496e76616c6964206d6f6d6120746f6b656e000000000000000060448201526064016103a3565b6103e884116106ec5760405162461bcd60e51b815260206004820152601a60248201527f4661726d3a20496e76616c696420626c6f636b2072657761726400000000000060448201526064016103a3565b43831161073b5760405162461bcd60e51b815260206004820152601960248201527f4661726d3a20496e76616c696420737461727420626c6f636b0000000000000060448201526064016103a3565b60008260008151811061075e57634e487b7160e01b600052603260045260246000fd5b6020026020010151116107b35760405162461bcd60e51b815260206004820152601e60248201527f4661726d3a20496e76616c6964206669727374206379636c652072617465000060448201526064016103a3565b6000826001815181106107d657634e487b7160e01b600052603260045260246000fd5b60200260200101511161082b5760405162461bcd60e51b815260206004820152601a60248201527f4661726d3a20496e76616c696420696e697469616c207261746500000000000060448201526064016103a3565b60008260028151811061084e57634e487b7160e01b600052603260045260246000fd5b602002602001015111801561088b575060648260018151811061088157634e487b7160e01b600052603260045260246000fd5b6020026020010151105b6108d75760405162461bcd60e51b815260206004820152601b60248201527f4661726d3a20496e76616c6964207265647563696e672072617465000000000060448201526064016103a3565b6000826003815181106108fa57634e487b7160e01b600052603260045260246000fd5b60200260200101511161094f5760405162461bcd60e51b815260206004820152601c60248201527f4661726d3a20496e76616c6964207265647563696e67206379636c650000000060448201526064016103a3565b6002805473ffffffffffffffffffffffffffffffffffffffff19166001600160a01b038716908117909155604080517f15e9afea00000000000000000000000000000000000000000000000000000000815290516315e9afea91600480820192602092909190829003018186803b1580156109c957600080fd5b505afa1580156109dd573d6000803e3d6000fd5b505050506040513d601f19601f82011682018060405250810190610a01919061185c565b6001805473ffffffffffffffffffffffffffffffffffffffff19166001600160a01b03929092169190911790556003849055600483905581518290600090610a5957634e487b7160e01b600052603260045260246000fd5b602002602001015160088190555081600181518110610a8857634e487b7160e01b600052603260045260246000fd5b602002602001015160098190555081600281518110610ab757634e487b7160e01b600052603260045260246000fd5b6020026020010151600a8190555081600381518110610ae657634e487b7160e01b600052603260045260246000fd5b6020908102919091010151600b556007805460ff191660011790556000438410610b105783610b12565b435b6005555060006006558015610b4a57600080547fffffffffffffffffffff00ffffffffffffffffffffffffffffffffffffffffff1690555b5050505050565b6000546001600160a01b03163314610bab5760405162461bcd60e51b815260206004820181905260248201527f4f776e61626c653a2063616c6c6572206973206e6f7420746865206f776e657260448201526064016103a3565b60075460ff161515600114610bf55760405162461bcd60e51b815260206004820152601060248201526f4661726d3a204e6f742061637469766560801b60448201526064016103a3565b600081118015610c06575060648111155b610c525760405162461bcd60e51b815260206004820152601b60248201527f4661726d3a20496e76616c6964207265647563696e672072617465000000000060448201526064016103a3565b600a55565b6000546001600160a01b03163314610cb15760405162461bcd60e51b815260206004820181905260248201527f4f776e61626c653a2063616c6c6572206973206e6f7420746865206f776e657260448201526064016103a3565b600080546040516001600160a01b03909116907f8be0079c531659141344cd1fd0a4f28419497f9722a3daafe3b4186f6b6457e0908390a36000805473ffffffffffffffffffffffffffffffffffffffff19169055565b6000610d13836113e0565b610d1c836113e0565b610d269190611b7d565b9392505050565b60075460ff161515600114610d775760405162461bcd60e51b815260206004820152601060248201526f4661726d3a204e6f742061637469766560801b60448201526064016103a3565b336000908152600c60205260409020610d8e610ed4565b805415610ddc576000816001015464e8d4a510006006548460000154610db49190611b5e565b610dbe9190611a36565b610dc89190611b7d565b90508015610dda57610dda33826112af565b505b8115610e0a57600154610dfa906001600160a01b0316333085611575565b8054610e07908390611a1e565b81555b600654815464e8d4a5100091610e1f91611b5e565b610e299190611a36565b600182015560405182815233907fe1fffcc4923d04b559f4d29a8bfc6cda04eb5b0d3c460751c2402c5c5cc9109c9060200160405180910390a25050565b336000818152600c6020526040902080546001549192610e90926001600160a01b031691611332565b805460405190815233907f5fafa99d0643513820be26656b45130b01e1c03062e1266bf36f88cbd3bd96959060200160405180910390a26000808255600190910155565b60075460ff161515600114610f1e5760405162461bcd60e51b815260206004820152601060248201526f4661726d3a204e6f742061637469766560801b60448201526064016103a3565b6005544311610f2c5761101d565b6001546040516370a0823160e01b81523060048201526000916001600160a01b0316906370a082319060240160206040518083038186803b158015610f7057600080fd5b505afa158015610f84573d6000803e3d6000fd5b505050506040513d601f19601f82011682018060405250810190610fa89190611996565b905080610fb957504360055561101d565b6000610fc760055443610d08565b9050600064e8d4a5100060035483610fdf9190611b5e565b610fe99190611a36565b905082610ffb8264e8d4a51000611b5e565b6110059190611a36565b6006546110129190611a1e565b600655505043600555505b565b6001600160a01b038181166000908152600c602052604080822060065460015492516370a0823160e01b8152306004820152939491939092859216906370a082319060240160206040518083038186803b15801561107c57600080fd5b505afa158015611090573d6000803e3d6000fd5b505050506040513d601f19601f820116820180604052508101906110b49190611996565b9050600554431180156110c657508015155b80156110d9575060075460ff1615156001145b156111395760006110ec60055443610d08565b9050600064e8d4a51000600354836111049190611b5e565b61110e9190611a36565b9050826111208264e8d4a51000611b5e565b61112a9190611a36565b6111349085611a1e565b935050505b6001830154835464e8d4a5100090611152908590611b5e565b61115c9190611a36565b6111669190611b7d565b93505050505b919050565b6000546001600160a01b031633146111cb5760405162461bcd60e51b815260206004820181905260248201527f4f776e61626c653a2063616c6c6572206973206e6f7420746865206f776e657260448201526064016103a3565b6001600160a01b0381166112475760405162461bcd60e51b815260206004820152602660248201527f4f776e61626c653a206e6577206f776e657220697320746865207a65726f206160448201527f646472657373000000000000000000000000000000000000000000000000000060648201526084016103a3565b600080546040516001600160a01b03808516939216917f8be0079c531659141344cd1fd0a4f28419497f9722a3daafe3b4186f6b6457e091a36000805473ffffffffffffffffffffffffffffffffffffffff19166001600160a01b0392909216919091179055565b6002546040517fd40aafde0000000000000000000000000000000000000000000000000000000081526001600160a01b038481166004830152602482018490529091169063d40aafde90604401600060405180830381600087803b15801561131657600080fd5b505af115801561132a573d6000803e3d6000fd5b505050505050565b6040516001600160a01b0383166024820152604481018290526113db9084907fa9059cbb00000000000000000000000000000000000000000000000000000000906064015b60408051601f198184030181529190526020810180517bffffffffffffffffffffffffffffffffffffffffffffffffffffffff167fffffffff00000000000000000000000000000000000000000000000000000000909316929092179091526115cc565b505050565b600080600b54600454846113f49190611b7d565b6113fe9190611a36565b905080611436576008546004546114159085611b7d565b61141f9190611b5e565b61142e9064e8d4a51000611b5e565b91505061116c565b6000600854600b546114489190611b5e565b6114579064e8d4a51000611b5e565b905060005b611467600184611b7d565b8110156114d857600b5461147c826064611a90565b82600a5461148a9190611a90565b60095461149c9064e8d4a51000611b5e565b6114a69190611b5e565b6114b09190611a36565b6114ba9190611b5e565b6114c49083611a1e565b9150806114d081611bc0565b91505061145c565b6000600b54600454876114eb9190611b7d565b6114f59190611bdb565b111561156b57600b5460045461150b9087611b7d565b6115159190611bdb565b611520826064611a90565b82600a5461152e9190611a90565b6009546115409064e8d4a51000611b5e565b61154a9190611b5e565b6115549190611a36565b61155e9190611b5e565b6115689083611a1e565b91505b50915061116c9050565b6040516001600160a01b03808516602483015283166044820152606481018290526115c69085907f23b872dd0000000000000000000000000000000000000000000000000000000090608401611377565b50505050565b6000611621826040518060400160405280602081526020017f5361666545524332303a206c6f772d6c6576656c2063616c6c206661696c6564815250856001600160a01b03166116b19092919063ffffffff16565b8051909150156113db578080602001905181019061163f919061195e565b6113db5760405162461bcd60e51b815260206004820152602a60248201527f5361666545524332303a204552433230206f7065726174696f6e20646964206e60448201527f6f7420737563636565640000000000000000000000000000000000000000000060648201526084016103a3565b60606116c084846000856116c8565b949350505050565b6060824710156117405760405162461bcd60e51b815260206004820152602660248201527f416464726573733a20696e73756666696369656e742062616c616e636520666f60448201527f722063616c6c000000000000000000000000000000000000000000000000000060648201526084016103a3565b843b61178e5760405162461bcd60e51b815260206004820152601d60248201527f416464726573733a2063616c6c20746f206e6f6e2d636f6e747261637400000060448201526064016103a3565b600080866001600160a01b031685876040516117aa91906119cf565b60006040518083038185875af1925050503d80600081146117e7576040519150601f19603f3d011682016040523d82523d6000602084013e6117ec565b606091505b50915091506117fc828286611807565b979650505050505050565b60608315611816575081610d26565b8251156118265782518084602001fd5b8160405162461bcd60e51b81526004016103a391906119eb565b600060208284031215611851578081fd5b8135610d2681611c31565b60006020828403121561186d578081fd5b8151610d2681611c31565b6000806000806080858703121561188d578283fd5b843561189881611c31565b9350602085810135935060408601359250606086013567ffffffffffffffff808211156118c3578384fd5b818801915088601f8301126118d6578384fd5b8135818111156118e8576118e8611c1b565b8060051b604051601f19603f8301168101818110858211171561190d5761190d611c1b565b604052828152858101935084860182860187018d101561192b578788fd5b8795505b8386101561194d57803585526001959095019493860193860161192f565b50989b979a50959850505050505050565b60006020828403121561196f578081fd5b81518015158114610d26578182fd5b60006020828403121561198f578081fd5b5035919050565b6000602082840312156119a7578081fd5b5051919050565b600080604083850312156119c0578182fd5b50508035926020909101359150565b600082516119e1818460208701611b94565b9190910192915050565b6000602082528251806020840152611a0a816040850160208701611b94565b601f01601f19169190910160400192915050565b60008219821115611a3157611a31611bef565b500190565b600082611a4557611a45611c05565b500490565b80825b6001808611611a5c5750611a87565b818704821115611a6e57611a6e611bef565b80861615611a7b57918102915b9490941c938002611a4d565b94509492505050565b6000610d266000198484600082611aa957506001610d26565b81611ab657506000610d26565b8160018114611acc5760028114611ad657611b03565b6001915050610d26565b60ff841115611ae757611ae7611bef565b6001841b915084821115611afd57611afd611bef565b50610d26565b5060208310610133831016604e8410600b8410161715611b36575081810a83811115611b3157611b31611bef565b610d26565b611b438484846001611a4a565b808604821115611b5557611b55611bef565b02949350505050565b6000816000190483118215151615611b7857611b78611bef565b500290565b600082821015611b8f57611b8f611bef565b500390565b60005b83811015611baf578181015183820152602001611b97565b838111156115c65750506000910152565b6000600019821415611bd457611bd4611bef565b5060010190565b600082611bea57611bea611c05565b500690565b634e487b7160e01b600052601160045260246000fd5b634e487b7160e01b600052601260045260246000fd5b634e487b7160e01b600052604160045260246000fd5b6001600160a01b0381168114611c4657600080fd5b5056fea2646970667358221220f4c020daec9761c73d00ac523c05952561909b239eb97ef1635293eff010455f64736f6c63430008030033",
  "linkReferences": {},
  "deployedLinkReferences": {}
}